{
  "author": "0x00bd138abd70e2f00903268f3db08f2d25677c9e",
  "difficulty": "0xfffffffffffffffffffffffffffffffe",
  "extraData": "0xde830200098f5061726974792d457468657265756d86312e33302e30826c69",
  "gasLimit": "0x7a1200",
  "gasUsed": "0xa410",
  "hash": "0xd1d20a2d86549815630efe365d7e6fb4821b9fbc76e072e93994810f95d1ec20",
  "logsBloom": "0x00000000000000000000000000000000000000000000000000000000000000000000000000000000000000000000000000000000000000000000000000000000000000000000000000000000000000000000000000000000000000000000000000000000000000000000000000000000000000000000000000000000000000000000000000000000000000000000000000000000000000000000000000000000000000000000000000000000000000000000000000000000000000000000000000000000000000000000000000000000000000000000000000000000000000000000000000000000000000000000000000000000000000000000000000000000",
  "miner": "0x00bd138abd70e2f00903268f3db08f2d25677c9e",
  "number": "0x3891ee",
  "parentHash": "0xdb3c2dde21cfdcf48afbbfdac0728c7aa0b0324e871681b4a2927343031d4688",
  "receiptsRoot": "0xd95b673818fa493deec414e01e610d97ee287c9421c8eff4102b1647c1a184e4",
  "sealFields": [
    "0x84127a2381",
    "0xb84161b3fefea8f63789209f33ae9d195e889dc333dbedda3ba48c59374fa1249d4e68c022051f8a953b9d8811e74801232e7b82cb137fc3f9327c40e5187039f39a00"
  ],
  "sha3Uncles": "0x1dcc4de8dec75d7aab85b567b6ccd41ad312451b948a7413f0a142fd40d49347",
  "signature": "61b3fefea8f63789209f33ae9d195e889dc333dbedda3ba48c59374fa1249d4e68c022051f8a953b9d8811e74801232e7b82cb137fc3f9327c40e5187039f39a00",
  "size": "0x32c",
  "stateRoot": "0xce025371d3ecff180769f4eef0a71f777c21c4a32dcd0e3b7f7d48e2f34fa027",
  "step": "309994369",
  "timestamp": "0x5c62b185",
  "totalDifficulty": "0x3891edffffffffffffffffffffffffed4f4a91",
  "transactions": [
    {
      "blockHash": "0xd1d20a2d86549815630efe365d7e6fb4821b9fbc76e072e93994810f95d1ec20",
      "blockNumber": "0x3891ee",
      "chainId": "0xd46e6",
      "condition": null,
      "creates": null,
      "from": "0x004ec07d2329997267ec62b4166639513386f32e",
      "gas": "0x186a00",
      "gasPrice": "0x0",
      "hash": "0x6f0223ec85158dea598d91103aef2188ca18f0cb3f7d412263baf36c37c8572d",
      "input": "0x",
      "nonce": "0x10bf",
      "publicKey": "0x621996c6e497c966bfe34a4d44f70b70fd5591bb86d6aecdc0731ba24aff97ed2594726b8ba2e1d4486813c5f4a9942961f3a51bf6b21dffef03c15be1847380",
      "r": "0x1d3b9fa07149ec13a652c5fa3352a5a9758de4d1ceaa36250b2602172f5b63ce",
      "raw": "0xf86d8210bf8083186a009404b43dcc67d2f261fe8734b01e2a10d6e5d2976d880de0b6b3a764000080831a8df0a01d3b9fa07149ec13a652c5fa3352a5a9758de4d1ceaa36250b2602172f5b63cea06ae4d355877259d3ee9318ecd8d449dffb49bf2388a9cd157e138be965766eb7",
      "s": "0x6ae4d355877259d3ee9318ecd8d449dffb49bf2388a9cd157e138be965766eb7",
      "standardV": "0x1",
      "to": "0x04b43dcc67d2f261fe8734b01e2a10d6e5d2976d",
      "transactionIndex": "0x0",
      "v": "0x1a8df0",
      "value": "0xde0b6b3a7640000"
    },
    {
      "blockHash": "0xd1d20a2d86549815630efe365d7e6fb4821b9fbc76e072e93994810f95d1ec20",
      "blockNumber": "0x3891ee",
      "chainId": "0xd46e6",
      "condition": null,
      "creates": null,
      "from": "0x004ec07d2329997267ec62b4166639513386f32e",
      "gas": "0x186a00",
      "gasPrice": "0x0",
      "hash": "0xb54e09ac4b74bf7b398cc51fd4780f09b5e89ae0ecb743e701396b028fcd6786",
      "input": "0x",
      "nonce": "0x10c0",
      "publicKey": "0x621996c6e497c966bfe34a4d44f70b70fd5591bb86d6aecdc0731ba24aff97ed2594726b8ba2e1d4486813c5f4a9942961f3a51bf6b21dffef03c15be1847380",
      "r": "0x43ba1a7019514ab7b606584afa83935f522d7d8881672f8c266c374ef1588af2",
      "raw": "0xf86c8210c08083186a009482c412f466c4b8e64afcf69b08bdfae1fe32f41987de0b6b3a76400080831a8df0a043ba1a7019514ab7b606584afa83935f522d7d8881672f8c266c374ef1588af2a047bab769ecf1cdda90c41c8df4eb1fab7051cd78b9beb12c12557b27c79c07a5",
      "s": "0x47bab769ecf1cdda90c41c8df4eb1fab7051cd78b9beb12c12557b27c79c07a5",
      "standardV": "0x1",
      "to": "0x82c412f466c4b8e64afcf69b08bdfae1fe32f419",
      "transactionIndex": "0x1",
      "v": "0x1a8df0",
      "value": "0xde0b6b3a764000"
    }
  ],
  "transactionsRoot": "0x55968dc9badf1091d2cac4f1df150c8b764b85926e4ca63b2dd9cc191c19152c",
  "uncles": [
  ]
}
